:100000000C9434000C9451000C9451000C94510049
:100010000C9451000C9451000C9451000C9451001C
:100020000C9451000C9451000C9451000C9451000C
:100030000C9451000C9451000C9451000C945100FC
:100040000C9451000C9451000C9451000C945100EC
:100050000C9451000C9451000C9451000C945100DC
:100060000C9451000C94510011241FBECFEFD8E026
:10007000DEBFCDBF11E0A0E0B1E0E4E7F9E002C0EF
:1000800005900D92A832B107D9F721E0A8E2B1E0BE
:1000900001C01D92A134B207E1F70E94FA020C944C
:1000A000B8040C940000CF92DF92EF92FF920F936E
:1000B0001F93CF93DF93EC017B016B0183E0C80EAC
:1000C000D11CC6010E9488038C0199838883C601D4
:1000D0000E9488039B838A8303969D838C831F835E
:1000E0000E83C8010296998788870D5F1F4F1B8773
:1000F0000A871D861C861F861E86F98AE88ADF917C
:10010000CF911F910F91FF90EF90DF90CF900895C6
:100110000F931F93CF93DF93FC01DB0115870487B7
:10012000C801039697878687C681D7818C9189837A
:10013000C681D78111968C918883A085B18588E08E
:10014000489FA001112444604C93A801B901828505
:100150009385DF91CF911F910F910C94AF04CF93B2
:10016000DF93FC01358724872D5F3F4F3787268734
:10017000A681B781EB01888111968C93A681B78106
:1001800089818C930084F185E02D440F440F440F46
:100190004083DF91CF9108958F929F92AF92BF924B
:1001A000CF92DF92EF92FF920F931F93CF93DF9343
:1001B00000D0CDB7DEB77C014A015901680181E06A
:1001C00090E09A83898304E010E09B0140E0BE0147
:1001D0006F5F7F4FC7010E948800F7014281538102
:1001E00066857785808191810E94590385E090E042
:1001F0009A838983940140E0BE016F5F7F4FC701FE
:100200000E948800F701428153816685778580814D
:1002100091810E94590389E090E09A83898306E0E6
:1002200010E0950140E0BE016F5F7F4FC7010E9463
:100230008800F701428153816685778580819181AD
:100240000E9459038FE090E09A83898304E010E0D4
:10025000960140E0BE016F5F7F4FC7010E9488009A
:10026000F7014281538166857785808191810E9463
:1002700059030F900F90DF91CF911F910F91FF9035
:10028000EF90DF90CF90BF90AF909F908F900895A8
:100290005F926F927F928F929F92AF92BF92CF9216
:1002A000DF92EF92FF920F931F93CF93DF9300D0D3
:1002B00000D0CDB7DEB77C013B014A01590168018E
:1002C00083E090E09A83898382E08C8381E08B8352
:1002D00021E030E041E0BE016F5F7F4FC7010E9427
:1002E000AF00D70112964D915C9113971E966D91B8
:1002F0007C911F978D919C910E9459035524539492
:10030000D7011496ED91FC91159780818823E9F02F
:10031000BDE15B1609F4B1C0E4E05E0E21E030E01F
:10032000452DBE016F5F7F4FC7010E94AF00D7010F
:1003300012964D915C9113971E966D917C911F972B
:100340008D919C910E945903DBCF84E090E09A83C9
:10035000898302E010E09301452DBE016F5F7F4F5E
:10036000C7010E948800F701428153816685778525
:10037000808191810E94590386E090E09A8389836D
:1003800006E010E09401452DBE016F5F7F4FC7016D
:100390000E948800D70112964D915C9113971E968A
:1003A0006D917C911F978D919C910E9459038CE0D7
:1003B00090E09A83898304E010E09501452DBE0109
:1003C0006F5F7F4FC7010E948800F7014281538110
:1003D00066857785808191810E94590380E190E054
:1003E0009A83898302E010E09601452DBE016F5F7C
:1003F0007F4FC7010E948800D70112964D915C91F2
:1004000013971E966D917C911F978D919C910E94E0
:1004100059031A82198201E010E09E012C5F3F4FC0
:10042000452DBE016F5F7F4FC7010E948800F70115
:100430004281538166857785808191810E9459032D
:1004400081E090E09A8389839E012D5F3F4F452D87
:10045000BE016F5F7F4FC7010E948800D7011296CF
:100460004D915C9113971E966D917C911F978D9184
:100470009C910E945903852D01C080E00F900F9040
:100480000F900F90DF91CF911F910F91FF90EF9000
:10049000DF90CF90BF90AF909F908F907F906F90A4
:1004A0005F9008959F92AF92BF92CF92DF92EF92AA
:1004B000FF920F931F93CF93DF93CDB7DEB72797AC
:1004C0000FB6F894DEBF0FBECDBF7C01962E5A0149
:1004D000690182E290E09E838D831C821B821A82D6
:1004E000198280E28F8322E030E0462FBE016B5FED
:1004F0007F4FC7010E94AF00D70112964D915C91CA
:1005000013971E966D917C911F978D919C910E94DF
:100510005903D7011496ED91FC911597808190E0D5
:10052000982F88272181822B9C838B8341E0490D62
:1005300086019501BE016D5F7F4FC7010E94880053
:10054000F7014281538166857785808191810E9480
:1005500059038B819C818C0D9D1D98278927982795
:100560009A83898384E290E09E838D8302E010E089
:100570009E012F5F3F4F492DBE016B5F7F4FC7012B
:100580000E948800D70112964D915C9113971E9698
:100590006D917C911F978D919C910E94590381E0F0
:1005A00090E09E838D8301E010E09E01295F3F4F24
:1005B000492DBE016B5F7F4FC7010E948800F70184
:1005C0004281538166857785808191810E9459039C
:1005D00027960FB6F894DEBF0FBECDBFDF91CF9147
:1005E0001F910F91FF90EF90DF90CF90BF90AF9051
:1005F0009F9008950F931F93CF93DF931F92CDB7D2
:10060000DEB719820E944E0362E370E0809106011A
:10061000909107010E94530006E111E02EE131E0C4
:100620004AE151E064E271E0809106019091070196
:100630000E94CC0008E011E02AE031E04EE051E0F9
:1006400064E171E080910601909107010E944801E8
:1006500080932A018823D1F089818F5F898321E0EB
:1006600030E0AE014F5F5F4F60912A01809106013B
:10067000909107010E9452022FEF83E294EF2150E4
:1006800080409040E1F700C00000E6CF80E090E0BD
:100690000F90DF91CF911F910F91089584B18C62DB
:1006A00084B98CB580658CBD8DB581608DBD2A9A6D
:1006B00008952A98FA019F01241B350B2617370746
:1006C00054F4DC012D91CD012EBD0DB407FEFDCFFC
:1006D0002EB52193F0CF2A9A08959093C500809368
:1006E000C40088E08093C10086E08093C200089532
:1006F000FC019F01281B390B2617370744F4209172
:10070000C00025FFFCCF21912093C600F2CF0895B1
:10071000CF93DF938230910510F482E090E0E09176
:100720003F01F091400120E030E0A0E0B0E03097E0
:1007300039F14081518148175907B8F048175907D6
:1007400071F482819381109729F013969C938E9374
:1007500012972CC09093400180933F0127C0211530
:10076000310531F04217530718F0A901DB0101C030
:10077000EF019A01BD01DF010280F381E02DD7CFA7
:1007800021153105F9F0281B390B2430310580F48F
:100790008A819B816115710521F0FB01938382831E
:1007A00004C09093400180933F01FE01329644C003
:1007B000FE01E20FF31F8193919322503109398397
:1007C00028833AC020913D0130913E01232B41F412
:1007D000209102013091030130933E0120933D01AD
:1007E00020910001309101012115310541F42DB70F
:1007F0003EB74091040150910501241B350BE09157
:100800003D01F0913E01E217F307A0F42E1B3F0BD0
:100810002817390778F0AC014E5F5F4F2417350772
:1008200048F04E0F5F1F50933E0140933D0181936E
:10083000919302C0E0E0F0E0CF01DF91CF91089505
:10084000CF93DF93009709F487C0FC01329713829E
:100850001282C0913F01D0914001209781F4208104
:100860003181280F391F80913D0190913E018217FF
:10087000930779F5F0933E01E0933D016DC0DE01F1
:1008800020E030E0AE17BF0750F412964D915C9116
:1008900013979D014115510509F1DA01F3CFB38397
:1008A000A28340815181840F951F8A179B0771F4A1
:1008B0008D919C911197840F951F0296918380834F
:1008C00012968D919C911397938382832115310504
:1008D00029F4F0934001E0933F013EC0D901139603
:1008E000FC93EE9312974D915D91A40FB51FEA17FB
:1008F000FB0779F480819181840F951F0296D901BD
:1009000011969C938E938281938113969C938E93E0
:100910001297E0E0F0E08A819B81009719F0FE01D8
:10092000EC01F9CFCE01029628813981820F931F05
:1009300020913D0130913E012817390769F4309725
:1009400029F41092400110923F0102C013821282DA
:10095000D0933E01C0933D01DF91CF910895FB01FB
:10096000DC0102C001900D9241505040D8F708952B
:04097000F894FFCF29
:100974000000410120002B0115B3C0A80001406C08
:100984008F5856A21F90C0A80002FFFFFF0090A23C
:08099400DA10A3D4C0A8010190
:00000001FF
