:100000000C9457000C9474000C9474000C947400BD
:100010000C9474000C9474000C9474000C94740090
:100020000C9474000C9474000C9474000C94740080
:100030000C9474000C9474000C94ED030C947400F4
:100040000C9474000C9474000C9474000C94740060
:100050000C9474000C9478040C9474000C94740048
:100060000C9474000C947400072C7AA5BA6CC5909B
:10007000DA3B9365FC8BBC53F810FD3C5692834DE4
:10008000BD879D3AB63DCBC9BF5BBE73DA0FC93F92
:1000900005A84CCDB2D44EB93836A9020C50B9914E
:1000A0008688083CA6AAAA2ABE000000803F112428
:1000B0001FBECFEFD8E0DEBFCDBF11E0A0E0B1E0C2
:1000C000E2EBF6E102C005900D92AA32B107D9F732
:1000D00021E0AAE2B1E001C01D92A135B207E1F72B
:1000E0000E9444030C94570B0C94000084B18C6262
:1000F00084B98CB580658CBD8DB581608DBD2A9A23
:1001000008952A98FA019F01241B350B26173707FB
:1001100054F4DC012D91CD012EBD0DB407FEFDCFB1
:100120002EB52193F0CF2A9A08959093C50080931D
:10013000C40088E08093C10086E08093C2000895E7
:10014000FC019F01281B390B2617370744F4209127
:10015000C00025FFFCCF21912093C600F2CF089567
:10016000EF92FF920F931F93CF93DF93EC017B01EC
:100170008B010F5F1F4F000F111FC8010E94270A3C
:100180009983888302501109080F191F198708875E
:100190009F838E839B838A839D838C83FB86EA86E1
:1001A0001D861C86DF91CF911F910F91FF90EF90DC
:1001B0000895CF93DF93FC01A281B381EB01888185
:1001C000998111969C938E9380859185A817B90784
:1001D00029F4868197819383828303C01296B38327
:1001E000A2838485958522853385821793071CF425
:1001F000019695878487DF91CF910895CF93DF9300
:10020000FC01A481B5818D919C911197EB0199839B
:10021000888380859185A817B90729F486819781FD
:100220009583848303C01296B583A483DF91CF9115
:1002300008956F927F928F929F92AF92BF92CF92CA
:10024000DF92EF92FF920F931F93CF93DF93CDB77F
:10025000DEB73C01CB01BA01F3011482158216828C
:1002600017821082118212821382608771878287BF
:1002700093870487158726873787C08AD18AE28AC1
:10028000F38A848A958AA68AB78AA90198010E946E
:10029000E707F30160A371A382A393A3148E158EC5
:1002A000168E178E108E118E128E138EDF91CF91B7
:1002B0001F910F91FF90EF90DF90CF90BF90AF9084
:1002C0009F908F907F906F9008954F925F926F9262
:1002D0007F928F929F92AF92BF92CF92DF92EF92D6
:1002E000FF920F931F93CF93DF9300D000D0CDB731
:1002F000DEB78C017A01DC0150964D905D906D90D7
:100300007C905397FB016081718180E090E00E94B6
:100310004F08A30192010E9482074B015C01D701A3
:100320006D917C9180E090E00E944F08A3019201C2
:100330000E9482072B013C01D80190968D919D91DE
:100340000D90BC91A02D89839A83AB83BC83A301BC
:100350009201C501B4010E94830729813A814B8132
:100360005C810E941D096B017C01F801648F758F0F
:10037000868F978FA3019201C501B4010E94820765
:1003800029813A814B815C810E941D099B01AC014E
:10039000D80158966D937D938D939C935B97C7017D
:1003A000B6010E941D09F8012481358146815781DB
:1003B0000E948307D80114966D937D938D939C932F
:1003C000179754962D913D914D915C9157970E94AE
:1003D000E7070E948A09F80160837183828393830F
:1003E0000F900F900F900F90DF91CF911F910F9171
:1003F000FF90EF90DF90CF90BF90AF909F908F9045
:100400007F906F905F904F9008956F927F928F9240
:100410009F92AF92BF92CF92DF92EF92FF920F9393
:100420001F93CF93DF93CDB7DEB73C01CB01BA0169
:10043000F3011086118612861386108211821282B1
:1004400013821482158216821782648775878687C5
:100450009787008B118B228B338BC48AD58AE68ACF
:10046000F78A808E918EA28EB38EA90198010E9488
:10047000E707F30164A375A386A397A3148E158ED3
:10048000168E178E10A211A212A213A2DF91CF9185
:100490001F910F91FF90EF90DF90CF90BF90AF90A2
:1004A0009F908F907F906F9008952F923F924F92E0
:1004B0005F926F927F928F929F92AF92BF92CF92F4
:1004C000DF92EF92FF920F931F93CF93DF9300D0B1
:1004D00000D000D0CDB7DEB79E838D831A013A835A
:1004E0002983FC0184889588A688B788C4A0D5A0F4
:1004F000E6A0F7A0FB016081718180E090E00E949E
:100500004F08A50194010E948207A70196010E944D
:100510001D092B013C01F1016081718180E090E0B7
:100520000E944F08A50194010E948207A70196012D
:100530000E941D099B01AC01C301B2010E941D096B
:100540002B013C01ED81FE81648F758F868F978F23
:10055000E981FA816081718180E090E00E944F081A
:10056000A50194010E948207A70196010E941D091E
:1005700069837A838B839C83F8016081718180E039
:1005800090E00E944F08A50194010E948207A701F4
:1005900096010E941D099B01AC0169817A818B81C2
:1005A0009C810E941D099B01AC01ED81FE8160A32D
:1005B00071A382A393A3C301B2010E948207ED81BC
:1005C000FE8120853185428553850E948307ED8118
:1005D000FE816087718782879387208D318D428D60
:1005E000538D0E94E707ED81FE81608371838283D2
:1005F000938326960FB6F894DEBF0FBECDBFDF9172
:10060000CF911F910F91FF90EF90DF90CF90BF900F
:10061000AF909F908F907F906F905F904F903F90A2
:100620002F900895CF92DF92EF92FF92CF93DF93B6
:10063000EC01FA01DB012D913D914D915C916081BE
:100640007181828193810E941D096B017C019B0154
:10065000AC01688179818A819B810E94E7070E94B1
:1006600074070E9480099B01AC01C701B6010E947A
:100670001D096C837D838E839F83DF91CF91FF90D3
:10068000EF90DF90CF9008950F931F938CE090E050
:100690000E94270A9093390180933801009709F44A
:1006A00097C090933701809336019C012E5F3F4F96
:1006B00030933501209334012E5F3F4F30932F014B
:1006C00020932E012E5F3F4F30932D0120932C015C
:1006D0002E5F3F4F3093330120933201FC0110868F
:1006E0001186128613860E94760062E370E0809184
:1006F0000701909108010E94CD0407E111E02FE16C
:1007000031E04BE151E065E271E0809107019091A9
:1007100008010E94460509E011E02BE031E04FE0BE
:1007200051E065E171E080910701909108010E941C
:10073000C20580933A01882309F44AC080917E0063
:100740008F6080937E0080917A00876080937A002A
:10075000789480917A00806880937A0080917A0002
:10076000806480937A00FFEF23E284EFF150204011
:100770008040E1F700C0000080917A00886080939B
:100780007A0082E387BD85B5836085BD80917B005B
:10079000836080937B0080917A00806280937A00EE
:1007A00084B5806C84BD16BC80917C00806480938D
:1007B0007C0080916E00826080936E008091810049
:1007C0008160809381001092850010928400FFCF99
:1007D00080E090E01F910F9108951F920F920FB645
:1007E0000F9211242F933F934F935F936F937F93B7
:1007F0008F939F93AF93BF93EF93FF9316BC78941F
:10080000809178009091790090932B0180932A0138
:10081000809106018230A9F190F4882329F181307A
:1008200009F04FC080917C008F5F80937C0082E054
:1008300080930601E0913401F09135013BC0833093
:1008400069F18430F1F51092060140913801509120
:1008500039012CE030E060913A01809107019091DC
:1008600008010E94CC0633C080917C008F5F80938A
:100870007C0081E080930601E0913601F091370120
:1008800019C080917C008F5F80937C0083E080930F
:100890000601E0912E01F0912F010CC084E08093BD
:1008A000060180917C008C7F80937C00E0912C017C
:1008B000F0912D0180912A0190912B0191838083E9
:1008C00006C0109285001092840010920601FF91DC
:1008D000EF91BF91AF919F918F917F916F915F91B8
:1008E0004F913F912F910F900FBE0F901F90189531
:1008F0001F920F920FB60F9211242F933F934F9395
:100900005F936F937F938F939F93AF93BF93CF9397
:10091000DF93EF93FF93789480910601813051F536
:1009200080918400909185009093310180933001F3
:100930001092850010928400C0913201D091330151
:10094000609130017091310180E090E00E944F0889
:1009500020E030E04AE756E40E94E7079B01AC0143
:10096000688179818A819B810E948307688379836A
:100970008A839B83FF91EF91DF91CF91BF91AF91DC
:100980009F918F917F916F915F914F913F912F91A7
:100990000F900FBE0F901F901895CF92DF92EF929D
:1009A000FF920F931F93CF93DF93EC017B016B01B9
:1009B00083E0C80ED11CC6010E94270A8C019983CE
:1009C0008883C6010E94270A9B838A8303969D839E
:1009D0008C831F830E83C8010296998788870D5FD9
:1009E0001F4F1B870A871D861C861F861E86F98A55
:1009F000E88ADF91CF911F910F91FF90EF90DF90E8
:100A0000CF9008950F931F93CF93DF93FC01DB01E9
:100A100015870487C801039697878687C681D78183
:100A20008C918983C681D78111968C918883A0850A
:100A3000B18588E0489FA001112444604C93A8012F
:100A4000B90182859385DF91CF911F910F910C940D
:100A50004E0BCF93DF93FC01358724872D5F3F4FEB
:100A600037872687A681B781EB01888111968C9301
:100A7000A681B78189818C930084F185E02D440F94
:100A8000440F440F4083DF91CF9108958F929F923E
:100A9000AF92BF92CF92DF92EF92FF920F931F938C
:100AA000CF93DF9300D0CDB7DEB77C014A01590167
:100AB000680181E090E09A83898304E010E09B0163
:100AC00040E0BE016F5F7F4FC7010E940205F70142
:100AD0004281538166857785808191810E94810062
:100AE00085E090E09A838983940140E0BE016F5FC6
:100AF0007F4FC7010E940205F7014281538166853D
:100B00007785808191810E94810089E090E09A83BD
:100B1000898306E010E0950140E0BE016F5F7F4FE2
:100B2000C7010E940205F7014281538166857785DE
:100B3000808191810E9481008FE090E09A83898377
:100B400004E010E0960140E0BE016F5F7F4FC701F7
:100B50000E940205F7014281538166857785808175
:100B600091810E9481000F900F90DF91CF911F9192
:100B70000F91FF90EF90DF90CF90BF90AF909F903C
:100B80008F9008955F926F927F928F929F92AF9213
:100B9000BF92CF92DF92EF92FF920F931F93CF936A
:100BA000DF9300D000D0CDB7DEB77C013B014A0116
:100BB0005901680183E090E09A83898382E08C8305
:100BC00081E08B8321E030E041E0BE016F5F7F4F29
:100BD000C7010E942905D70112964D915C91139788
:100BE0001E966D917C911F978D919C910E94810022
:100BF00055245394D7011496ED91FC91159780815B
:100C00008823E9F0BDE15B1609F4B1C0E4E05E0EB3
:100C100021E030E0452DBE016F5F7F4FC7010E948C
:100C20002905D70112964D915C9113971E966D91EF
:100C30007C911F978D919C910E948100DBCF84E075
:100C400090E09A83898302E010E09301452DBE0174
:100C50006F5F7F4FC7010E940205F70142815381F8
:100C600066857785808191810E94810086E090E091
:100C70009A83898306E010E09401452DBE016F5FE1
:100C80007F4FC7010E940205D70112964D915C91DA
:100C900013971E966D917C911F978D919C910E9448
:100CA00081008CE090E09A83898304E010E0950154
:100CB000452DBE016F5F7F4FC7010E940205F701FE
:100CC0004281538166857785808191810E94810070
:100CD00080E190E09A83898302E010E09601452D3F
:100CE000BE016F5F7F4FC7010E940205D7011296B8
:100CF0004D915C9113971E966D917C911F978D91EC
:100D00009C910E9481001A82198201E010E09E01EC
:100D10002C5F3F4F452DBE016F5F7F4FC7010E9483
:100D20000205F70142815381668577858081918133
:100D30000E94810081E090E09A8389839E012D5F6B
:100D40003F4F452DBE016F5F7F4FC7010E940205D7
:100D5000D70112964D915C9113971E966D917C91DF
:100D60001F978D919C910E948100852D01C080E08C
:100D70000F900F900F900F90DF91CF911F910F91D7
:100D8000FF90EF90DF90CF90BF90AF909F908F90AB
:100D90007F906F905F9008959F92AF92BF92CF9295
:100DA000DF92EF92FF920F931F93CF93DF93CDB714
:100DB000DEB727970FB6F894DEBF0FBECDBF7C011C
:100DC000962E5A01690182E290E09E838D831C82F7
:100DD0001B821A82198280E28F8322E030E0462F44
:100DE000BE016B5F7F4FC7010E942905D701129694
:100DF0004D915C9113971E966D917C911F978D91EB
:100E00009C910E948100D7011496ED91FC91159759
:100E1000808190E0982F88272181822B9C838B836F
:100E200041E0490D86019501BE016D5F7F4FC7010D
:100E30000E940205F7014281538166857785808192
:100E400091810E9481008B819C818C0D9D1D982732
:100E5000892798279A83898384E290E09E838D83F3
:100E600002E010E09E012F5F3F4F492DBE016B5FF6
:100E70007F4FC7010E940205D70112964D915C91E8
:100E800013971E966D917C911F978D919C910E9456
:100E9000810081E090E09E838D8301E010E09E015F
:100EA000295F3F4F492DBE016B5F7F4FC7010E94F5
:100EB0000205F701428153816685778580819181A2
:100EC0000E94810027960FB6F894DEBF0FBECDBFFB
:100ED000DF91CF911F910F91FF90EF90DF90CF9016
:100EE000BF90AF909F9008959F939F7715D10F90DB
:100EF00000203AF49058A2EA2AED3FE049E450E499
:100F000013D061C15058BB27AA270ED05CC14DD168
:100F100030F052D120F031F49F3F11F41EF41DC186
:100F20000EF4E095E7FB13C1E92F5ED180F3BA1709
:100F3000620773078407950718F071F49EF576C170
:100F40000EF4E0950B2EBA2FA02D0B01B9019001E4
:100F50000C01CA01A0011124FF27591B99F0593F28
:100F600050F4503E68F11A16F040A22F232F342F70
:100F70004427585FF3CF469537952795A795F040BE
:100F80005395C9F77EF41F16BA0B620B730B840BD3
:100F9000BAF09150A1F0FF0FBB1F661F771F881F8B
:100FA000C2F70EC0BA0F621F731F841F48F48795E3
:100FB00077956795B795F7959E3F08F0B3CF9395D2
:100FC000880F08F09927EE0F9795879508950CD014
:100FD000FAC0F2D040F0E9D030F021F45F3F19F0D0
:100FE000B6C0511124C1B9C0FFD098F39923C9F3F9
:100FF0005523B1F3951B550BBB27AA27621773071F
:10100000840738F09F5F5F4F220F331F441FAA1FD2
:10101000A9F333D00E2E3AF0E0E830D09150504092
:10102000E695001CCAF729D0FE2F27D0660F771F40
:10103000881FBB1F261737074807AB07B0E809F022
:10104000BB0B802DBF01FF2793585F4F2AF09E3FB7
:10105000510568F07CC0EBC05F3FECF3983EDCF3D9
:10106000869577956795B795F7959F5FC9F7880F30
:10107000911D9695879597F90895E1E0660F771F82
:10108000881FBB1F621773078407BA0720F0621B13
:10109000730B840BBA0BEE1F88F7E0950895E89464
:1010A00009C097FB3EF490958095709561957F4FB0
:1010B0008F4F9F4F9923A9F0F92F96E9BB2793955E
:1010C000F695879577956795B795F111F8CFFAF46E
:1010D000BB0F11F460FF1BC06F5F7F4F8F4F9F4F9F
:1010E00016C0882311F096E911C0772321F09EE8FD
:1010F000872F762F05C0662371F096E8862F70E063
:1011000060E02AF09A95660F771F881FDAF7880F3C
:101110009695879597F90895DF93CF931F930F9333
:101120008B01EC01E8E6F0E01BD04DD09801AE0158
:101130008B01EC0160E070E080E89FE3E3DEEAD041
:101140009801AE010F911F91CF91DF9182C097F965
:101150009F6780E870E060E008959FEF80EC08955D
:10116000DF93CF931F930F93FF92EF92DF927B0158
:101170008C01689405C0DA2EEF016BD0FE01E89473
:10118000A5912591359145915591AEF3EF01CCDEB6
:10119000FE019701A801DA9479F7DF90EF90FF90B4
:1011A0000F911F91CF91DF91089500240A94161694
:1011B000170618060906089500240A941216130645
:1011C000140605060895092E0394000C11F48823D3
:1011D00052F0BB0F40F4BF2B11F460FF04C06F5FEF
:1011E0007F4F8F4F9F4F089557FD9058440F551FC5
:1011F00059F05F3F71F04795880F97FB991F61F099
:101200009F3F79F087950895121613061406551F0F
:10121000F2CF4695F1DF08C0161617061806991F7B
:10122000F1CF86957105610508940895E894BB2770
:1012300066277727CB0197F908950BD0C4CFB5DF88
:1012400028F0BADF18F0952309F081CF86CF11245A
:10125000EECFCADFA0F3959FD1F3950F50E0551F55
:10126000629FF001729FBB27F00DB11D639FAA27FB
:10127000F00DB11DAA1F649F6627B00DA11D661F4A
:10128000829F2227B00DA11D621F739FB00DA11D6B
:10129000621F839FA00D611D221F749F3327A00D25
:1012A000611D231F849F600D211D822F762F6A2FC1
:1012B00011249F5750408AF0E1F088234AF0EE0F46
:1012C000FF1FBB1F661F771F881F91505040A9F753
:1012D0009E3F510570F03BCFAACF5F3FECF3983EA5
:1012E000DCF3869577956795B795F795E7959F5FBA
:1012F000C1F7FE2B880F911D9695879597F9089554
:101300009F935CD00F9007FCEE5F7FC011F40EF44A
:1013100024CF3EC071DFD0F39923D9F3CEF39F578A
:10132000550B87FF43D00024A0E640EA9001805887
:101330005695979528F4805C660F771F881F20F0DC
:1013400026173707480730F4621B730B840B2029DC
:1013500031294A2BA69517940794202531254A2731
:1013600058F7660F771F881F20F0261737074807A2
:1013700030F4620B730B840B200D311D411DA095C1
:1013800081F7B901842F9158880F96958795089514
:101390009F3F31F0915020F4879577956795B795E9
:1013A000880F911D9695879597F908959150504013
:1013B000660F771F881FD2F70895CFCE1DDFE8F3A1
:1013C000E894E0E0BB279F57F0F02AED3FE049ECBE
:1013D00006C0EE0FBB0F661F771F881F28F0B23ABA
:1013E00062077307840728F0B25A620B730B840BF1
:1013F000E3959A9572F7803830F49A95BB0F661F83
:10140000771F881FD2F79048C5CFEF93E0FF06C043
:10141000A2EA2AED3FE049EC5FEB86DDD4DE0F90D7
:10142000039401FC9058E0E9F0E000C09F938F9393
:101430007F936F93FF93EF939B01AC01FEDEEF91DF
:10144000FF918EDE2F913F914F915F91F6CECF931A
:10145000DF938230910510F482E090E0E0914F013B
:10146000F091500120E030E0A0E0B0E0309739F199
:101470004081518148175907B8F04817590771F44E
:1014800082819381109729F013969C938E931297E3
:101490002CC09093500180934F0127C02115310536
:1014A00031F04217530718F0A901DB0101C0EF0129
:1014B0009A01BD01DF010280F381E02DD7CF211514
:1014C0003105F9F0281B390B2430310580F48A816D
:1014D0009B816115710521F0FB019383828304C018
:1014E0009093500180934F01FE01329644C0FE015B
:1014F000E20FF31F8193919322503109398328839E
:101500003AC020914D0130914E01232B41F420919E
:1015100002013091030130934E0120934D0120913F
:101520000001309101012115310541F42DB73EB77D
:101530004091040150910501241B350BE0914D01B0
:10154000F0914E01E217F307A0F42E1B3F0B281772
:10155000390778F0AC014E5F5F4F2417350748F02C
:101560004E0F5F1F50934E0140934D018193919315
:1015700002C0E0E0F0E0CF01DF91CF910895CF937A
:10158000DF93009709F487C0FC013297138212821F
:10159000C0914F01D0915001209781F42081318179
:1015A000280F391F80914D0190914E0182179307AA
:1015B00079F5F0934E01E0934D016DC0DE0120E01E
:1015C00030E0AE17BF0750F412964D915C9113971F
:1015D0009D014115510509F1DA01F3CFB383A283CF
:1015E00040815181840F951F8A179B0771F48D915B
:1015F0009C911197840F951F029691838083129678
:101600008D919C911397938382832115310529F441
:10161000F0935001E0934F013EC0D9011396FC9323
:10162000EE9312974D915D91A40FB51FEA17FB073A
:1016300079F480819181840F951F0296D9011196CA
:101640009C938E938281938113969C938E93129791
:10165000E0E0F0E08A819B81009719F0FE01EC0147
:10166000F9CFCE01029628813981820F931F2091F4
:101670004D0130914E012817390769F4309729F44C
:101680001092500110924F0102C013821282D09327
:101690004E01C0934D01DF91CF910895FB01DC0114
:1016A00002C001900D9241505040D8F70895F8942F
:0216B000FFCF6A
:1016B200000051012000053B0115B3C0A800014004
:1016C2006C8F5856A21F90C0A80002FFFFFF009027
:0A16D200A2DA10A3D4C0A8010100A1
:00000001FF
