:100000000C9434000C9451000C9451000C94510049
:100010000C9451000C9451000C9451000C9451001C
:100020000C9451000C9451000C9451000C9451000C
:100030000C9451000C9451000C9451000C945100FC
:100040000C9451000C9451000C9451000C945100EC
:100050000C9451000C9451000C9451000C945100DC
:100060000C9451000C94510011241FBECFEFD8E026
:10007000DEBFCDBF11E0A0E0B1E0ECEAFCE002C0E1
:1000800005900D92AC31B107D9F721E0ACE1B1E0B8
:1000900001C01D92A533B207E1F70E947A040C94C7
:1000A00054060C940000CF92DF92EF92FF920F93D0
:1000B0001F93CF93DF93EC017B016B0183E0C80EAC
:1000C000D11CC6010E9412058C0199838883C60148
:1000D0000E9412059B838A8303969D838C831F83D2
:1000E0000E83C8010296998788870D5F1F4F1B8773
:1000F0000A871D861C861F861E86F98AE88ADF917C
:10010000CF911F910F91FF90EF90DF90CF900895C6
:100110000F931F93CF93DF93FC01DB0115870487B7
:10012000C801039697878687C681D7818C9189837A
:10013000C681D78111968C918883A085B18588E08E
:10014000489FA001112444604C93A801B901828505
:100150009385DF91CF911F910F910C943906CF9326
:10016000DF93FC01358724872D5F3F4F3787268734
:10017000A681B781EB01888111968C93A681B78106
:1001800089818C930084F185E02D440F440F440F46
:100190004083DF91CF9108958F929F92AF92BF924B
:1001A000CF92DF92EF92FF920F931F93CF93DF9343
:1001B00000D0CDB7DEB77C014A015901680181E06A
:1001C00090E09A83898304E010E09B0140E0BE0147
:1001D0006F5F7F4FC7010E948800F7014281538102
:1001E00066857785808191810E94E30485E090E0B7
:1001F0009A838983940140E0BE016F5F7F4FC701FE
:100200000E948800F701428153816685778580814D
:1002100091810E94E30489E090E09A83898306E05B
:1002200010E0950140E0BE016F5F7F4FC7010E9463
:100230008800F701428153816685778580819181AD
:100240000E94E3048FE090E09A83898304E010E049
:10025000960140E0BE016F5F7F4FC7010E9488009A
:10026000F7014281538166857785808191810E9463
:10027000E3040F900F90DF91CF911F910F91FF90AA
:10028000EF90DF90CF90BF90AF909F908F900895A8
:100290005F926F927F928F929F92AF92BF92CF9216
:1002A000DF92EF92FF920F931F93CF93DF9300D0D3
:1002B00000D0CDB7DEB77C013B014A01590168018E
:1002C00083E090E09A83898382E08C8381E08B8352
:1002D00021E030E041E0BE016F5F7F4FC7010E9427
:1002E000AF00D70112964D915C9113971E966D91B8
:1002F0007C911F978D919C910E94E3045524539407
:10030000D7011496ED91FC91159780818823E9F02F
:10031000BDE15B1609F4B1C0E4E05E0E21E030E01F
:10032000452DBE016F5F7F4FC7010E94AF00D7010F
:1003300012964D915C9113971E966D917C911F972B
:100340008D919C910E94E304DBCF84E090E09A833E
:10035000898302E010E09301452DBE016F5F7F4F5E
:10036000C7010E948800F701428153816685778525
:10037000808191810E94E30486E090E09A838983E2
:1003800006E010E09401452DBE016F5F7F4FC7016D
:100390000E948800D70112964D915C9113971E968A
:1003A0006D917C911F978D919C910E94E3048CE04C
:1003B00090E09A83898304E010E09501452DBE0109
:1003C0006F5F7F4FC7010E948800F7014281538110
:1003D00066857785808191810E94E30480E190E0C9
:1003E0009A83898302E010E09601452DBE016F5F7C
:1003F0007F4FC7010E948800D70112964D915C91F2
:1004000013971E966D917C911F978D919C910E94E0
:10041000E3041A82198201E010E09E012C5F3F4F35
:10042000452DBE016F5F7F4FC7010E948800F70115
:100430004281538166857785808191810E94E304A2
:1004400081E090E09A8389839E012D5F3F4F452D87
:10045000BE016F5F7F4FC7010E948800D7011296CF
:100460004D915C9113971E966D917C911F978D9184
:100470009C910E94E304852D01C080E00F900F90B5
:100480000F900F90DF91CF911F910F91FF90EF9000
:10049000DF90CF90BF90AF909F908F907F906F90A4
:1004A0005F900895BF92CF92DF92EF92FF920F93E9
:1004B0001F93CF93DF9300D000D0CDB7DEB77C0180
:1004C0006B0183E090E09A83898382E08C8381E0F2
:1004D0008B8321E030E041E0BE016F5F7F4FC701B9
:1004E0000E94AF00D70112964D915C9113971E9612
:1004F0006D917C911F978D919C910E94E304BB2488
:10050000B394D7011496ED91FC91159780818823BF
:10051000E9F0BDE1BB1609F464C0E4E0BE0E21E0E1
:1005200030E04B2DBE016F5F7F4FC7010E94AF00CF
:10053000D70112964D915C9113971E966D917C9107
:100540001F978D919C910E94E304DBCF84E090E0A3
:100550009A83898302E010E096014B2DBE016F5F04
:100560007F4FC7010E948800F70142815381668551
:100570007785808191810E94E3041A82198201E0CB
:1005800010E09E012C5F3F4F4B2DBE016F5F7F4FF0
:10059000C7010E948800D70112964D915C91139774
:1005A0001E966D917C911F978D919C910E94E30402
:1005B00081E090E09A8389839E012D5F3F4F4B2D10
:1005C000BE016F5F7F4FC7010E948800F701428123
:1005D000538166857785808191810E94E3048B2D0C
:1005E00001C080E00F900F900F900F90DF91CF919E
:1005F0001F910F91FF90EF90DF90CF90BF900895E3
:100600009F92AF92BF92CF92DF92EF92FF920F93A1
:100610001F93CF93DF93CDB7DEB727970FB6F8942C
:10062000DEBF0FBECDBF7C01962E5A01690182E26A
:1006300090E09E838D831C821B821A82198280E245
:100640008F8322E030E0462FBE016B5F7F4FC701F2
:100650000E94AF00D70112964D915C9113971E96A0
:100660006D917C911F978D919C910E94E304D7011D
:100670001496ED91FC911597808190E0982F882732
:100680002181822B9C838B8341E0490D860195015A
:10069000BE016D5F7F4FC7010E948800F701428154
:1006A000538166857785808191810E94E3048B81E7
:1006B0009C818C0D9D1D9827892798279A83898373
:1006C00084E290E09E838D8302E010E09E012F5F24
:1006D0003F4F492DBE016B5F7F4FC7010E948800CD
:1006E000D70112964D915C9113971E966D917C9156
:1006F0001F978D919C910E94E30481E090E09E837E
:100700008D8301E010E09E01295F3F4F492DBE011E
:100710006B5F7F4FC7010E948800F70142815381C0
:1007200066857785808191810E94E30427960FB6C4
:10073000F894DEBF0FBECDBFDF91CF911F910F9117
:10074000FF90EF90DF90CF90BF90AF909F90089573
:100750006F927F928F929F92AF92BF92CF92DF92D1
:10076000EF92FF920F931F93CF93DF9300D000D0AF
:100770001F92CDB7DEB77C01762E4A011A8219820C
:1007800080E48D8338E2A32EB12CBC82AB8222E0C0
:1007900030E0462FBE016D5F7F4FC7010E94AF0062
:1007A000D70112964D915C9113971E966D917C9195
:1007B0001F978D919C910E94E304D7011496ED91AF
:1007C000FC9115970181608086E290E09C838B8389
:1007D00022E030E0472DBE016D5F7F4FC7010E94D0
:1007E000AF00F701428153816685778580819181D1
:1007F0000E94E304D7011496ED91FC911597C080F7
:10080000D12CDC2CCC248181C82AC114D10409F458
:100810005CC010E016291C830B8342E0470D960153
:10082000BE016D5F7F4FC7010E94AF00F70142819B
:10083000538166857785808191810E94E304D70189
:1008400014966D917C911597685F7F4FA601C40146
:100850000E9442060C0D1D1D1027012710271A8328
:100860000983BC82AB8202E010E09E012F5F3F4F04
:10087000472DBE016D5F7F4FC7010E948800F701C1
:100880004281538166857785808191810E94E3044E
:1008900081E090E09C838B8301E010E09E012B5F60
:1008A0003F4F472DBE016D5F7F4FC7010E948800FB
:1008B000D70112964D915C9113971E966D917C9184
:1008C0001F978D919C910E94E304C6010F900F9099
:1008D0000F900F900F90DF91CF911F910F91FF908C
:1008E000EF90DF90CF90BF90AF909F908F907F90D0
:1008F0006F9008950F931F93CF9388EC90E00E9420
:10090000120590931D0180931C01009709F44AC0C1
:10091000C0E8FC01C0830E94D80468EC70E08091BC
:100920000601909107010E9453000AE011E022E1C4
:1009300031E04EE051E068E171E080910601909174
:1009400007010E94CC0068E071E08091060190915F
:1009500007010E94520280931E01882319F1539AC5
:100960008091B00083628093B000C093B400809106
:10097000B10083608093B10040911C0150911D0132
:1009800060911E0180910601909107010E94A803C9
:10099000892B91F3E0911C01F0911D0180818093DE
:1009A000B400EACF80E090E0CF911F910F910895BD
:1009B00084B18C6284B98CB580658CBD8DB5816045
:1009C0008DBD2A9A08952A98FA019F01241B350BA0
:1009D0002617370754F4DC012D91CD012EBD0DB43F
:1009E00007FEFDCF2EB52193F0CF2A9A089590935C
:1009F000C5008093C40088E08093C10086E08093A6
:100A0000C2000895FC019F01281B390B26173707E8
:100A100044F42091C00025FFFCCF21912093C60013
:100A2000F2CF0895CF93DF938230910510F482E0E6
:100A300090E0E0913301F091340120E030E0A0E05B
:100A4000B0E0309739F14081518148175907B8F02B
:100A50004817590771F482819381109729F01396F2
:100A60009C938E9312972CC0909334018093330102
:100A700027C02115310531F04217530718F0A9019D
:100A8000DB0101C0EF019A01BD01DF010280F381AA
:100A9000E02DD7CF21153105F9F0281B390B243073
:100AA000310580F48A819B816115710521F0FB017C
:100AB0009383828304C09093340180933301FE01B9
:100AC000329644C0FE01E20FF31F819391932250AE
:100AD0003109398328833AC02091310130913201A4
:100AE000232B41F420910201309103013093320114
:100AF0002093310120910001309101012115310530
:100B000041F42DB73EB74091040150910501241BDB
:100B1000350BE0913101F0913201E217F307A0F4B7
:100B20002E1B3F0B2817390778F0AC014E5F5F4F43
:100B30002417350748F04E0F5F1F50933201409342
:100B400031018193919302C0E0E0F0E0CF01DF91A9
:100B5000CF910895CF93DF93009709F487C0FC01EC
:100B6000329713821282C0913301D09134012097C1
:100B700081F420813181280F391F809131019091BA
:100B800032018217930779F5F0933201E093310136
:100B90006DC0DE0120E030E0AE17BF0750F41296C2
:100BA0004D915C9113979D014115510509F1DA01B1
:100BB000F3CFB383A28340815181840F951F8A179D
:100BC0009B0771F48D919C911197840F951F02964C
:100BD0009183808312968D919C9113979383828346
:100BE0002115310529F4F0933401E09333013EC01F
:100BF000D9011396FC93EE9312974D915D91A40F3A
:100C0000B51FEA17FB0779F480819181840F951F46
:100C10000296D90111969C938E93828193811396AB
:100C20009C938E931297E0E0F0E08A819B8100977D
:100C300019F0FE01EC01F9CFCE010296288139812D
:100C4000820F931F2091310130913201281739070B
:100C500069F4309729F4109234011092330102C0E4
:100C600013821282D0933201C0933101DF91CF9170
:100C70000895FB01DC0102C001900D9241505040EB
:100C8000D8F708956817790768F4FB01DC01E40FD1
:100C9000F51FA40FB51F02C002900E9241505040A4
:0C0CA000D8F708950C943906F894FFCFA3
:100CAC000000350120001F0113BAC0A80003FFFF8C
:0C0CBC00FF0090A2DA10A3B1C0A8010153
:00000001FF
